{
  "_format": "hh-sol-artifact-1",
  "contractName": "MilestoneEscrow",
  "sourceName": "src/contracts/MilestoneEscrow.sol",
  "abi": [
    {
      "inputs": [
        {
          "internalType": "address",
          "name": "_feeCollector",
          "type": "address"
        }
      ],
      "stateMutability": "nonpayable",
      "type": "constructor"
    },
    {
      "anonymous": false,
      "inputs": [
        {
          "indexed": false,
          "internalType": "uint256",
          "name": "milestoneId",
          "type": "uint256"
        },
        {
          "indexed": false,
          "internalType": "uint256",
          "name": "feeAmount",
          "type": "uint256"
        }
      ],
      "name": "FeeCollected",
      "type": "event"
    },
    {
      "anonymous": false,
      "inputs": [
        {
          "indexed": false,
          "internalType": "uint256",
          "name": "id",
          "type": "uint256"
        },
        {
          "indexed": false,
          "internalType": "uint256",
          "name": "completedAt",
          "type": "uint256"
        }
      ],
      "name": "MilestoneCompleted",
      "type": "event"
    },
    {
      "anonymous": false,
      "inputs": [
        {
          "indexed": false,
          "internalType": "uint256",
          "name": "id",
          "type": "uint256"
        },
        {
          "indexed": false,
          "internalType": "address",
          "name": "client",
          "type": "address"
        },
        {
          "indexed": false,
          "internalType": "address",
          "name": "freelancer",
          "type": "address"
        },
        {
          "indexed": false,
          "internalType": "uint256",
          "name": "amount",
          "type": "uint256"
        },
        {
          "indexed": false,
          "internalType": "string",
          "name": "description",
          "type": "string"
        }
      ],
      "name": "MilestoneCreated",
      "type": "event"
    },
    {
      "anonymous": false,
      "inputs": [
        {
          "indexed": false,
          "internalType": "uint256",
          "name": "id",
          "type": "uint256"
        }
      ],
      "name": "MilestoneDisputed",
      "type": "event"
    },
    {
      "anonymous": false,
      "inputs": [
        {
          "indexed": false,
          "internalType": "uint256",
          "name": "id",
          "type": "uint256"
        }
      ],
      "name": "MilestoneRefunded",
      "type": "event"
    },
    {
      "anonymous": false,
      "inputs": [
        {
          "indexed": true,
          "internalType": "address",
          "name": "previousOwner",
          "type": "address"
        },
        {
          "indexed": true,
          "internalType": "address",
          "name": "newOwner",
          "type": "address"
        }
      ],
      "name": "OwnershipTransferred",
      "type": "event"
    },
    {
      "inputs": [
        {
          "internalType": "uint256",
          "name": "_milestoneId",
          "type": "uint256"
        }
      ],
      "name": "completeMilestone",
      "outputs": [],
      "stateMutability": "nonpayable",
      "type": "function"
    },
    {
      "inputs": [
        {
          "internalType": "address",
          "name": "_freelancer",
          "type": "address"
        },
        {
          "internalType": "string",
          "name": "_description",
          "type": "string"
        }
      ],
      "name": "createMilestone",
      "outputs": [],
      "stateMutability": "payable",
      "type": "function"
    },
    {
      "inputs": [
        {
          "internalType": "uint256",
          "name": "_milestoneId",
          "type": "uint256"
        }
      ],
      "name": "disputeMilestone",
      "outputs": [],
      "stateMutability": "nonpayable",
      "type": "function"
    },
    {
      "inputs": [],
      "name": "feeCollector",
      "outputs": [
        {
          "internalType": "address",
          "name": "",
          "type": "address"
        }
      ],
      "stateMutability": "view",
      "type": "function"
    },
    {
      "inputs": [
        {
          "internalType": "uint256",
          "name": "",
          "type": "uint256"
        }
      ],
      "name": "milestones",
      "outputs": [
        {
          "internalType": "uint256",
          "name": "id",
          "type": "uint256"
        },
        {
          "internalType": "address",
          "name": "client",
          "type": "address"
        },
        {
          "internalType": "address",
          "name": "freelancer",
          "type": "address"
        },
        {
          "internalType": "uint256",
          "name": "amount",
          "type": "uint256"
        },
        {
          "internalType": "string",
          "name": "description",
          "type": "string"
        },
        {
          "internalType": "enum MilestoneEscrow.MilestoneStatus",
          "name": "status",
          "type": "uint8"
        },
        {
          "internalType": "uint256",
          "name": "createdAt",
          "type": "uint256"
        },
        {
          "internalType": "uint256",
          "name": "completedAt",
          "type": "uint256"
        }
      ],
      "stateMutability": "view",
      "type": "function"
    },
    {
      "inputs": [],
      "name": "owner",
      "outputs": [
        {
          "internalType": "address",
          "name": "",
          "type": "address"
        }
      ],
      "stateMutability": "view",
      "type": "function"
    },
    {
      "inputs": [],
      "name": "platformFeePercent",
      "outputs": [
        {
          "internalType": "uint256",
          "name": "",
          "type": "uint256"
        }
      ],
      "stateMutability": "view",
      "type": "function"
    },
    {
      "inputs": [
        {
          "internalType": "uint256",
          "name": "_milestoneId",
          "type": "uint256"
        }
      ],
      "name": "refundMilestone",
      "outputs": [],
      "stateMutability": "nonpayable",
      "type": "function"
    },
    {
      "inputs": [],
      "name": "renounceOwnership",
      "outputs": [],
      "stateMutability": "nonpayable",
      "type": "function"
    },
    {
      "inputs": [
        {
          "internalType": "uint256",
          "name": "_milestoneId",
          "type": "uint256"
        },
        {
          "internalType": "address",
          "name": "_recipient",
          "type": "address"
        },
        {
          "internalType": "uint256",
          "name": "_amount",
          "type": "uint256"
        }
      ],
      "name": "resolveDispute",
      "outputs": [],
      "stateMutability": "nonpayable",
      "type": "function"
    },
    {
      "inputs": [
        {
          "internalType": "address",
          "name": "newOwner",
          "type": "address"
        }
      ],
      "name": "transferOwnership",
      "outputs": [],
      "stateMutability": "nonpayable",
      "type": "function"
    },
    {
      "inputs": [
        {
          "internalType": "address",
          "name": "_newFeeCollector",
          "type": "address"
        }
      ],
      "name": "updateFeeCollector",
      "outputs": [],
      "stateMutability": "nonpayable",
      "type": "function"
    },
    {
      "inputs": [
        {
          "internalType": "uint256",
          "name": "_newFeePercent",
          "type": "uint256"
        }
      ],
      "name": "updatePlatformFee",
      "outputs": [],
      "stateMutability": "nonpayable",
      "type": "function"
    }
  ],
  "bytecode": "0x60806040526101f46004553480156200001757600080fd5b5060405162002bd438038062002bd483398181016040528101906200003d9190620001ea565b6200005d62000051620000b460201b60201c565b620000bc60201b60201c565b6001808190555080600560006101000a81548173ffffffffffffffffffffffffffffffffffffffff021916908373ffffffffffffffffffffffffffffffffffffffff1602179055506001600281905550506200021c565b600033905090565b60008060009054906101000a900473ffffffffffffffffffffffffffffffffffffffff169050816000806101000a81548173ffffffffffffffffffffffffffffffffffffffff021916908373ffffffffffffffffffffffffffffffffffffffff1602179055508173ffffffffffffffffffffffffffffffffffffffff168173ffffffffffffffffffffffffffffffffffffffff167f8be0079c531659141344cd1fd0a4f28419497f9722a3daafe3b4186f6b6457e060405160405180910390a35050565b600080fd5b600073ffffffffffffffffffffffffffffffffffffffff82169050919050565b6000620001b28262000185565b9050919050565b620001c481620001a5565b8114620001d057600080fd5b50565b600081519050620001e481620001b9565b92915050565b60006020828403121562000203576200020262000180565b5b60006200021384828501620001d3565b91505092915050565b6129a8806200022c6000396000f3fe6080604052600436106100c25760003560e01c8063b90314ed1161007f578063d2c35ce811610059578063d2c35ce81461021f578063d82d7d8014610248578063e89e4ed614610271578063f2fde38b146102b5576100c2565b8063b90314ed146101af578063c02e6e68146101d8578063c415b95c146101f4576100c2565b8063715018a6146100c7578063852ea203146100de5780638c639a85146101075780638da5cb5b146101325780639c17e4391461015d578063aa0b598814610186575b600080fd5b3480156100d357600080fd5b506100dc6102de565b005b3480156100ea57600080fd5b50610105600480360381019061010091906117d2565b6102f2565b005b34801561011357600080fd5b5061011c6106b2565b604051610129919061180e565b60405180910390f35b34801561013e57600080fd5b506101476106b8565b604051610154919061186a565b60405180910390f35b34801561016957600080fd5b50610184600480360381019061017f91906118b1565b6106e1565b005b34801561019257600080fd5b506101ad60048036038101906101a891906117d2565b610c6a565b005b3480156101bb57600080fd5b506101d660048036038101906101d191906117d2565b610cc1565b005b6101f260048036038101906101ed9190611a4a565b610ee5565b005b34801561020057600080fd5b50610209611182565b604051610216919061186a565b60405180910390f35b34801561022b57600080fd5b5061024660048036038101906102419190611aa6565b6111a8565b005b34801561025457600080fd5b5061026f600480360381019061026a91906117d2565b611263565b005b34801561027d57600080fd5b50610298600480360381019061029391906117d2565b611446565b6040516102ac989796959493929190611bc9565b60405180910390f35b3480156102c157600080fd5b506102dc60048036038101906102d79190611aa6565b611563565b005b6102e66115e6565b6102f06000611664565b565b6102fa611728565b60006003600083815260200190815260200160002090503373ffffffffffffffffffffffffffffffffffffffff168160010160009054906101000a900473ffffffffffffffffffffffffffffffffffffffff1673ffffffffffffffffffffffffffffffffffffffff16146103a3576040517f08c379a000000000000000000000000000000000000000000000000000000000815260040161039a90611cc0565b60405180910390fd5b600160048111156103b7576103b6611b52565b5b8160050160009054906101000a900460ff1660048111156103db576103da611b52565b5b1461041b576040517f08c379a000000000000000000000000000000000000000000000000000000000815260040161041290611d2c565b60405180910390fd5b60028160050160006101000a81548160ff0219169083600481111561044357610442611b52565b5b0217905550428160070181905550600061271060045483600301546104689190611d7b565b6104729190611dec565b905060008183600301546104869190611e1d565b9050600082111561059a576000600560009054906101000a900473ffffffffffffffffffffffffffffffffffffffff1673ffffffffffffffffffffffffffffffffffffffff16836040516104d990611e82565b60006040518083038185875af1925050503d8060008114610516576040519150601f19603f3d011682016040523d82523d6000602084013e61051b565b606091505b505090508061055f576040517f08c379a000000000000000000000000000000000000000000000000000000000815260040161055690611ee3565b60405180910390fd5b7faf7c505ee772ec188af7067e1f73db08ab028e3d564273442b907742b9c41fa08584604051610590929190611f03565b60405180910390a1505b60008360020160009054906101000a900473ffffffffffffffffffffffffffffffffffffffff1673ffffffffffffffffffffffffffffffffffffffff16826040516105e490611e82565b60006040518083038185875af1925050503d8060008114610621576040519150601f19603f3d011682016040523d82523d6000602084013e610626565b606091505b505090508061066a576040517f08c379a000000000000000000000000000000000000000000000000000000000815260040161066190611f78565b60405180910390fd5b7f1b7218c0ac23ea9cbe4df603d2b340fbf469a115b73ea3d11460727f445d6be1854260405161069b929190611f03565b60405180910390a1505050506106af611777565b50565b60045481565b60008060009054906101000a900473ffffffffffffffffffffffffffffffffffffffff16905090565b6106e96115e6565b6106f1611728565b60006003600085815260200190815260200160002090506003600481111561071c5761071b611b52565b5b8160050160009054906101000a900460ff1660048111156107405761073f611b52565b5b14610780576040517f08c379a000000000000000000000000000000000000000000000000000000000815260040161077790611fe4565b60405180910390fd5b80600301548211156107c7576040517f08c379a00000000000000000000000000000000000000000000000000000000081526004016107be90612050565b60405180910390fd5b8060010160009054906101000a900473ffffffffffffffffffffffffffffffffffffffff1673ffffffffffffffffffffffffffffffffffffffff168373ffffffffffffffffffffffffffffffffffffffff16148061087457508060020160009054906101000a900473ffffffffffffffffffffffffffffffffffffffff1673ffffffffffffffffffffffffffffffffffffffff168373ffffffffffffffffffffffffffffffffffffffff16145b6108b3576040517f08c379a00000000000000000000000000000000000000000000000000000000081526004016108aa906120bc565b60405180910390fd5b6000808390508260020160009054906101000a900473ffffffffffffffffffffffffffffffffffffffff1673ffffffffffffffffffffffffffffffffffffffff168573ffffffffffffffffffffffffffffffffffffffff1603610a4e57612710600454856109219190611d7b565b61092b9190611dec565b915081846109399190611e1d565b90506000821115610a4d576000600560009054906101000a900473ffffffffffffffffffffffffffffffffffffffff1673ffffffffffffffffffffffffffffffffffffffff168360405161098c90611e82565b60006040518083038185875af1925050503d80600081146109c9576040519150601f19603f3d011682016040523d82523d6000602084013e6109ce565b606091505b5050905080610a12576040517f08c379a0000000000000000000000000000000000000000000000000000000008152600401610a0990611ee3565b60405180910390fd5b7faf7c505ee772ec188af7067e1f73db08ab028e3d564273442b907742b9c41fa08784604051610a43929190611f03565b60405180910390a1505b5b60008573ffffffffffffffffffffffffffffffffffffffff1682604051610a7490611e82565b60006040518083038185875af1925050503d8060008114610ab1576040519150601f19603f3d011682016040523d82523d6000602084013e610ab6565b606091505b5050905080610afa576040517f08c379a0000000000000000000000000000000000000000000000000000000008152600401610af190612128565b60405180910390fd5b6000858560030154610b0c9190611e1d565b90506000811115610be95760008560010160009054906101000a900473ffffffffffffffffffffffffffffffffffffffff1673ffffffffffffffffffffffffffffffffffffffff1682604051610b6190611e82565b60006040518083038185875af1925050503d8060008114610b9e576040519150601f19603f3d011682016040523d82523d6000602084013e610ba3565b606091505b5050905080610be7576040517f08c379a0000000000000000000000000000000000000000000000000000000008152600401610bde90612194565b60405180910390fd5b505b60028560050160006101000a81548160ff02191690836004811115610c1157610c10611b52565b5b02179055504285600701819055507f1b7218c0ac23ea9cbe4df603d2b340fbf469a115b73ea3d11460727f445d6be18842604051610c50929190611f03565b60405180910390a15050505050610c65611777565b505050565b610c726115e6565b6103e8811115610cb7576040517f08c379a0000000000000000000000000000000000000000000000000000000008152600401610cae90612200565b60405180910390fd5b8060048190555050565b610cc96115e6565b610cd1611728565b600060036000838152602001908152602001600020905060016004811115610cfc57610cfb611b52565b5b8160050160009054906101000a900460ff166004811115610d2057610d1f611b52565b5b1480610d61575060036004811115610d3b57610d3a611b52565b5b8160050160009054906101000a900460ff166004811115610d5f57610d5e611b52565b5b145b610da0576040517f08c379a0000000000000000000000000000000000000000000000000000000008152600401610d9790612292565b60405180910390fd5b60048160050160006101000a81548160ff02191690836004811115610dc857610dc7611b52565b5b021790555060008160010160009054906101000a900473ffffffffffffffffffffffffffffffffffffffff1673ffffffffffffffffffffffffffffffffffffffff168260030154604051610e1b90611e82565b60006040518083038185875af1925050503d8060008114610e58576040519150601f19603f3d011682016040523d82523d6000602084013e610e5d565b606091505b5050905080610ea1576040517f08c379a0000000000000000000000000000000000000000000000000000000008152600401610e9890612194565b60405180910390fd5b7f5d6cf3f427e833928f28d382b8e6c5420b5b8a3ed6fdd1ee859d426f07510b6083604051610ed0919061180e565b60405180910390a15050610ee2611777565b50565b600073ffffffffffffffffffffffffffffffffffffffff168273ffffffffffffffffffffffffffffffffffffffff1603610f54576040517f08c379a0000000000000000000000000000000000000000000000000000000008152600401610f4b906122fe565b60405180910390fd5b60003411610f97576040517f08c379a0000000000000000000000000000000000000000000000000000000008152600401610f8e9061236a565b60405180910390fd5b600060026000815480929190610fac9061238a565b9190505590506040518061010001604052808281526020013373ffffffffffffffffffffffffffffffffffffffff1681526020018473ffffffffffffffffffffffffffffffffffffffff1681526020013481526020018381526020016001600481111561101c5761101b611b52565b5b81526020014281526020016000815250600360008381526020019081526020016000206000820151816000015560208201518160010160006101000a81548173ffffffffffffffffffffffffffffffffffffffff021916908373ffffffffffffffffffffffffffffffffffffffff16021790555060408201518160020160006101000a81548173ffffffffffffffffffffffffffffffffffffffff021916908373ffffffffffffffffffffffffffffffffffffffff1602179055506060820151816003015560808201518160040190816110f691906125de565b5060a08201518160050160006101000a81548160ff0219169083600481111561112257611121611b52565b5b021790555060c0820151816006015560e082015181600701559050507f74355e929649d048eb1b510c77a4990473c14eb9942318abd2327a1f576e000a81338534866040516111759594939291906126b0565b60405180910390a1505050565b600560009054906101000a900473ffffffffffffffffffffffffffffffffffffffff1681565b6111b06115e6565b600073ffffffffffffffffffffffffffffffffffffffff168173ffffffffffffffffffffffffffffffffffffffff160361121f576040517f08c379a000000000000000000000000000000000000000000000000000000000815260040161121690612756565b60405180910390fd5b80600560006101000a81548173ffffffffffffffffffffffffffffffffffffffff021916908373ffffffffffffffffffffffffffffffffffffffff16021790555050565b60006003600083815260200190815260200160002090503373ffffffffffffffffffffffffffffffffffffffff168160010160009054906101000a900473ffffffffffffffffffffffffffffffffffffffff1673ffffffffffffffffffffffffffffffffffffffff16148061132757503373ffffffffffffffffffffffffffffffffffffffff168160020160009054906101000a900473ffffffffffffffffffffffffffffffffffffffff1673ffffffffffffffffffffffffffffffffffffffff16145b611366576040517f08c379a000000000000000000000000000000000000000000000000000000000815260040161135d906127e8565b60405180910390fd5b6001600481111561137a57611379611b52565b5b8160050160009054906101000a900460ff16600481111561139e5761139d611b52565b5b146113de576040517f08c379a00000000000000000000000000000000000000000000000000000000081526004016113d590611d2c565b60405180910390fd5b60038160050160006101000a81548160ff0219169083600481111561140657611405611b52565b5b02179055507ffddf026dc0fe8019554601c148f631302e8f8fe8d383e71165001e38f0830b618260405161143a919061180e565b60405180910390a15050565b60036020528060005260406000206000915090508060000154908060010160009054906101000a900473ffffffffffffffffffffffffffffffffffffffff16908060020160009054906101000a900473ffffffffffffffffffffffffffffffffffffffff16908060030154908060040180546114c190612401565b80601f01602080910402602001604051908101604052809291908181526020018280546114ed90612401565b801561153a5780601f1061150f5761010080835404028352916020019161153a565b820191906000526020600020905b81548152906001019060200180831161151d57829003601f168201915b5050505050908060050160009054906101000a900460ff16908060060154908060070154905088565b61156b6115e6565b600073ffffffffffffffffffffffffffffffffffffffff168173ffffffffffffffffffffffffffffffffffffffff16036115da576040517f08c379a00000000000000000000000000000000000000000000000000000000081526004016115d19061287a565b60405180910390fd5b6115e381611664565b50565b6115ee611780565b73ffffffffffffffffffffffffffffffffffffffff1661160c6106b8565b73ffffffffffffffffffffffffffffffffffffffff1614611662576040517f08c379a0000000000000000000000000000000000000000000000000000000008152600401611659906128e6565b60405180910390fd5b565b60008060009054906101000a900473ffffffffffffffffffffffffffffffffffffffff169050816000806101000a81548173ffffffffffffffffffffffffffffffffffffffff021916908373ffffffffffffffffffffffffffffffffffffffff1602179055508173ffffffffffffffffffffffffffffffffffffffff168173ffffffffffffffffffffffffffffffffffffffff167f8be0079c531659141344cd1fd0a4f28419497f9722a3daafe3b4186f6b6457e060405160405180910390a35050565b60026001540361176d576040517f08c379a000000000000000000000000000000000000000000000000000000000815260040161176490612952565b60405180910390fd5b6002600181905550565b60018081905550565b600033905090565b6000604051905090565b600080fd5b600080fd5b6000819050919050565b6117af8161179c565b81146117ba57600080fd5b50565b6000813590506117cc816117a6565b92915050565b6000602082840312156117e8576117e7611792565b5b60006117f6848285016117bd565b91505092915050565b6118088161179c565b82525050565b600060208201905061182360008301846117ff565b92915050565b600073ffffffffffffffffffffffffffffffffffffffff82169050919050565b600061185482611829565b9050919050565b61186481611849565b82525050565b600060208201905061187f600083018461185b565b92915050565b61188e81611849565b811461189957600080fd5b50565b6000813590506118ab81611885565b92915050565b6000806000606084860312156118ca576118c9611792565b5b60006118d8868287016117bd565b93505060206118e98682870161189c565b92505060406118fa868287016117bd565b9150509250925092565b600080fd5b600080fd5b6000601f19601f8301169050919050565b7f4e487b7100000000000000000000000000000000000000000000000000000000600052604160045260246000fd5b6119578261190e565b810181811067ffffffffffffffff821117156119765761197561191f565b5b80604052505050565b6000611989611788565b9050611995828261194e565b919050565b600067ffffffffffffffff8211156119b5576119b461191f565b5b6119be8261190e565b9050602081019050919050565b82818337600083830152505050565b60006119ed6119e88461199a565b61197f565b905082815260208101848484011115611a0957611a08611909565b5b611a148482856119cb565b509392505050565b600082601f830112611a3157611a30611904565b5b8135611a418482602086016119da565b91505092915050565b60008060408385031215611a6157611a60611792565b5b6000611a6f8582860161189c565b925050602083013567ffffffffffffffff811115611a9057611a8f611797565b5b611a9c85828601611a1c565b9150509250929050565b600060208284031215611abc57611abb611792565b5b6000611aca8482850161189c565b91505092915050565b600081519050919050565b600082825260208201905092915050565b60005b83811015611b0d578082015181840152602081019050611af2565b60008484015250505050565b6000611b2482611ad3565b611b2e8185611ade565b9350611b3e818560208601611aef565b611b478161190e565b840191505092915050565b7f4e487b7100000000000000000000000000000000000000000000000000000000600052602160045260246000fd5b60058110611b9257611b91611b52565b5b50565b6000819050611ba382611b81565b919050565b6000611bb382611b95565b9050919050565b611bc381611ba8565b82525050565b600061010082019050611bdf600083018b6117ff565b611bec602083018a61185b565b611bf9604083018961185b565b611c0660608301886117ff565b8181036080830152611c188187611b19565b9050611c2760a0830186611bba565b611c3460c08301856117ff565b611c4160e08301846117ff565b9998505050505050505050565b7f4f6e6c7920636c69656e742063616e20636f6d706c657465206d696c6573746f60008201527f6e65000000000000000000000000000000000000000000000000000000000000602082015250565b6000611caa602283611ade565b9150611cb582611c4e565b604082019050919050565b60006020820190508181036000830152611cd981611c9d565b9050919050565b7f4d696c6573746f6e65206973206e6f7420696e2066756e646564207374617465600082015250565b6000611d16602083611ade565b9150611d2182611ce0565b602082019050919050565b60006020820190508181036000830152611d4581611d09565b9050919050565b7f4e487b7100000000000000000000000000000000000000000000000000000000600052601160045260246000fd5b6000611d868261179c565b9150611d918361179c565b9250828202611d9f8161179c565b91508282048414831517611db657611db5611d4c565b5b5092915050565b7f4e487b7100000000000000000000000000000000000000000000000000000000600052601260045260246000fd5b6000611df78261179c565b9150611e028361179c565b925082611e1257611e11611dbd565b5b828204905092915050565b6000611e288261179c565b9150611e338361179c565b9250828203905081811115611e4b57611e4a611d4c565b5b92915050565b600081905092915050565b50565b6000611e6c600083611e51565b9150611e7782611e5c565b600082019050919050565b6000611e8d82611e5f565b9150819050919050565b7f466565207472616e73666572206661696c656400000000000000000000000000600082015250565b6000611ecd601383611ade565b9150611ed882611e97565b602082019050919050565b60006020820190508181036000830152611efc81611ec0565b9050919050565b6000604082019050611f1860008301856117ff565b611f2560208301846117ff565b9392505050565b7f5472616e7366657220746f20667265656c616e636572206661696c6564000000600082015250565b6000611f62601d83611ade565b9150611f6d82611f2c565b602082019050919050565b60006020820190508181036000830152611f9181611f55565b9050919050565b7f4d696c6573746f6e65206973206e6f7420646973707574656400000000000000600082015250565b6000611fce601983611ade565b9150611fd982611f98565b602082019050919050565b60006020820190508181036000830152611ffd81611fc1565b9050919050565b7f416d6f756e742065786365656473206d696c6573746f6e6520616d6f756e7400600082015250565b600061203a601f83611ade565b915061204582612004565b602082019050919050565b600060208201905081810360008301526120698161202d565b9050919050565b7f496e76616c696420726563697069656e74000000000000000000000000000000600082015250565b60006120a6601183611ade565b91506120b182612070565b602082019050919050565b600060208201905081810360008301526120d581612099565b9050919050565b7f5472616e73666572206661696c65640000000000000000000000000000000000600082015250565b6000612112600f83611ade565b915061211d826120dc565b602082019050919050565b6000602082019050818103600083015261214181612105565b9050919050565b7f526566756e6420746f20636c69656e74206661696c6564000000000000000000600082015250565b600061217e601783611ade565b915061218982612148565b602082019050919050565b600060208201905081810360008301526121ad81612171565b9050919050565b7f4665652063616e6e6f7420657863656564203130250000000000000000000000600082015250565b60006121ea601583611ade565b91506121f5826121b4565b602082019050919050565b60006020820190508181036000830152612219816121dd565b9050919050565b7f4d696c6573746f6e65206d75737420626520696e2066756e646564206f72206460008201527f6973707574656420737461746500000000000000000000000000000000000000602082015250565b600061227c602d83611ade565b915061228782612220565b604082019050919050565b600060208201905081810360008301526122ab8161226f565b9050919050565b7f496e76616c696420667265656c616e6365722061646472657373000000000000600082015250565b60006122e8601a83611ade565b91506122f3826122b2565b602082019050919050565b60006020820190508181036000830152612317816122db565b9050919050565b7f416d6f756e74206d7573742062652067726561746572207468616e2030000000600082015250565b6000612354601d83611ade565b915061235f8261231e565b602082019050919050565b6000602082019050818103600083015261238381612347565b9050919050565b60006123958261179c565b91507fffffffffffffffffffffffffffffffffffffffffffffffffffffffffffffffff82036123c7576123c6611d4c565b5b600182019050919050565b7f4e487b7100000000000000000000000000000000000000000000000000000000600052602260045260246000fd5b6000600282049050600182168061241957607f821691505b60208210810361242c5761242b6123d2565b5b50919050565b60008190508160005260206000209050919050565b60006020601f8301049050919050565b600082821b905092915050565b6000600883026124947fffffffffffffffffffffffffffffffffffffffffffffffffffffffffffffffff82612457565b61249e8683612457565b95508019841693508086168417925050509392505050565b6000819050919050565b60006124db6124d66124d18461179c565b6124b6565b61179c565b9050919050565b6000819050919050565b6124f5836124c0565b612509612501826124e2565b848454612464565b825550505050565b600090565b61251e612511565b6125298184846124ec565b505050565b5b8181101561254d57612542600082612516565b60018101905061252f565b5050565b601f8211156125925761256381612432565b61256c84612447565b8101602085101561257b578190505b61258f61258785612447565b83018261252e565b50505b505050565b600082821c905092915050565b60006125b560001984600802612597565b1980831691505092915050565b60006125ce83836125a4565b9150826002028217905092915050565b6125e782611ad3565b67ffffffffffffffff811115612600576125ff61191f565b5b61260a8254612401565b612615828285612551565b600060209050601f8311600181146126485760008415612636578287015190505b61264085826125c2565b8655506126a8565b601f19841661265686612432565b60005b8281101561267e57848901518255600182019150602085019450602081019050612659565b8683101561269b5784890151612697601f8916826125a4565b8355505b6001600288020188555050505b505050505050565b600060a0820190506126c560008301886117ff565b6126d2602083018761185b565b6126df604083018661185b565b6126ec60608301856117ff565b81810360808301526126fe8184611b19565b90509695505050505050565b7f496e76616c69642066656520636f6c6c6563746f722061646472657373000000600082015250565b6000612740601d83611ade565b915061274b8261270a565b602082019050919050565b6000602082019050818103600083015261276f81612733565b9050919050565b7f4f6e6c7920636c69656e74206f7220667265656c616e6365722063616e20646960008201527f7370757465000000000000000000000000000000000000000000000000000000602082015250565b60006127d2602583611ade565b91506127dd82612776565b604082019050919050565b60006020820190508181036000830152612801816127c5565b9050919050565b7f4f776e61626c653a206e6577206f776e657220697320746865207a65726f206160008201527f6464726573730000000000000000000000000000000000000000000000000000602082015250565b6000612864602683611ade565b915061286f82612808565b604082019050919050565b6000602082019050818103600083015261289381612857565b9050919050565b7f4f776e61626c653a2063616c6c6572206973206e6f7420746865206f776e6572600082015250565b60006128d0602083611ade565b91506128db8261289a565b602082019050919050565b600060208201905081810360008301526128ff816128c3565b9050919050565b7f5265656e7472616e637947756172643a207265656e7472616e742063616c6c00600082015250565b600061293c601f83611ade565b915061294782612906565b602082019050919050565b6000602082019050818103600083015261296b8161292f565b905091905056fea264697066735822122040011dfa632306530b7efcb330920401a4b136d05ea0bd3062592e1ab6a99c8164736f6c63430008130033",
  "linkReferences": {},
  "deployedLinkReferences": {}
}